{
	"contracts/kipu.sol": {
		"KipuBank": {
			"abi": [
				{
					"inputs": [
						{
							"internalType": "uint256",
							"name": "_bankCap",
							"type": "uint256"
						},
						{
							"internalType": "uint256",
							"name": "_umbralRetiro",
							"type": "uint256"
						}
					],
					"stateMutability": "nonpayable",
					"type": "constructor"
				},
				{
					"inputs": [
						{
							"internalType": "uint256",
							"name": "cantidad",
							"type": "uint256"
						},
						{
							"internalType": "uint256",
							"name": "bankCap",
							"type": "uint256"
						}
					],
					"name": "BankCapExcedido",
					"type": "error"
				},
				{
					"inputs": [],
					"name": "NoEsOwnerBoveda",
					"type": "error"
				},
				{
					"inputs": [
						{
							"internalType": "uint256",
							"name": "cantidad",
							"type": "uint256"
						},
						{
							"internalType": "uint256",
							"name": "umbral",
							"type": "uint256"
						}
					],
					"name": "RetiroNoValido",
					"type": "error"
				},
				{
					"inputs": [
						{
							"internalType": "uint256",
							"name": "balance",
							"type": "uint256"
						},
						{
							"internalType": "uint256",
							"name": "cantidad",
							"type": "uint256"
						}
					],
					"name": "SaldoInsuficiente",
					"type": "error"
				},
				{
					"inputs": [
						{
							"internalType": "address",
							"name": "destino",
							"type": "address"
						},
						{
							"internalType": "uint256",
							"name": "cantidad",
							"type": "uint256"
						}
					],
					"name": "TransferenciaFallida",
					"type": "error"
				},
				{
					"inputs": [],
					"name": "ValorNoPuedeSerCeroONegativo",
					"type": "error"
				},
				{
					"anonymous": false,
					"inputs": [
						{
							"indexed": false,
							"internalType": "address",
							"name": "depositante",
							"type": "address"
						},
						{
							"indexed": false,
							"internalType": "uint256",
							"name": "valor",
							"type": "uint256"
						}
					],
					"name": "DepositoExitoso",
					"type": "event"
				},
				{
					"anonymous": false,
					"inputs": [
						{
							"indexed": false,
							"internalType": "address",
							"name": "depositario",
							"type": "address"
						},
						{
							"indexed": false,
							"internalType": "uint256",
							"name": "valor",
							"type": "uint256"
						}
					],
					"name": "RetiroExitoso",
					"type": "event"
				},
				{
					"stateMutability": "nonpayable",
					"type": "fallback"
				},
				{
					"inputs": [
						{
							"internalType": "address",
							"name": "usuario",
							"type": "address"
						}
					],
					"name": "balanceUsuario",
					"outputs": [
						{
							"internalType": "uint256",
							"name": "",
							"type": "uint256"
						}
					],
					"stateMutability": "view",
					"type": "function"
				},
				{
					"inputs": [],
					"name": "deposito",
					"outputs": [],
					"stateMutability": "payable",
					"type": "function"
				},
				{
					"inputs": [
						{
							"internalType": "uint256",
							"name": "cantidad",
							"type": "uint256"
						}
					],
					"name": "retiro",
					"outputs": [],
					"stateMutability": "nonpayable",
					"type": "function"
				},
				{
					"inputs": [],
					"name": "verBankCap",
					"outputs": [
						{
							"internalType": "uint256",
							"name": "",
							"type": "uint256"
						}
					],
					"stateMutability": "view",
					"type": "function"
				},
				{
					"inputs": [],
					"name": "verDepositosTotales",
					"outputs": [
						{
							"internalType": "uint256",
							"name": "",
							"type": "uint256"
						}
					],
					"stateMutability": "view",
					"type": "function"
				},
				{
					"inputs": [],
					"name": "verRegistros",
					"outputs": [
						{
							"internalType": "uint256",
							"name": "",
							"type": "uint256"
						},
						{
							"internalType": "uint256",
							"name": "",
							"type": "uint256"
						}
					],
					"stateMutability": "view",
					"type": "function"
				},
				{
					"inputs": [],
					"name": "verUmbralDeRetiro",
					"outputs": [
						{
							"internalType": "uint256",
							"name": "",
							"type": "uint256"
						}
					],
					"stateMutability": "view",
					"type": "function"
				},
				{
					"stateMutability": "payable",
					"type": "receive"
				}
			],
			"devdoc": {
				"author": "Whejseider - Franco Vallone",
				"custom:security": "Este es un contrato educativo y no debe ser usado en producción",
				"kind": "dev",
				"methods": {},
				"title": "KipuBank",
				"version": 1
			},
			"evm": {
				"assembly": "    /* \"contracts/kipu.sol\":300:6222  contract KipuBank {... */\n  mstore(0x40, 0xc0)\n    /* \"contracts/kipu.sol\":2993:3199  constructor(uint256 _bankCap, uint256 _umbralRetiro) {... */\n  callvalue\n  dup1\n  iszero\n  tag_1\n  jumpi\n  revert(0x00, 0x00)\ntag_1:\n  pop\n  mload(0x40)\n  sub(codesize, bytecodeSize)\n  dup1\n  bytecodeSize\n  dup4\n  codecopy\n  dup2\n  dup2\n  add\n  0x40\n  mstore\n  dup2\n  add\n  swap1\n  tag_2\n  swap2\n  swap1\n  tag_3\n  jump\t// in\ntag_2:\n    /* \"contracts/kipu.sol\":3066:3074  _bankCap */\n  dup2\n    /* \"contracts/kipu.sol\":3056:3074  bankCap = _bankCap */\n  0xa0\n  dup2\n  dup2\n  mstore\n  pop\n  pop\n    /* \"contracts/kipu.sol\":3099:3112  _umbralRetiro */\n  dup1\n    /* \"contracts/kipu.sol\":3084:3112  umbralRetiro = _umbralRetiro */\n  0x80\n  dup2\n  dup2\n  mstore\n  pop\n  pop\n    /* \"contracts/kipu.sol\":3152:3153  0 */\n  0x00\n    /* \"contracts/kipu.sol\":3122:3130  registro */\n  0x01\n    /* \"contracts/kipu.sol\":3122:3149  registro.numerosDeDepositos */\n  0x00\n  add\n    /* \"contracts/kipu.sol\":3122:3153  registro.numerosDeDepositos = 0 */\n  dup2\n  swap1\n  sstore\n  pop\n    /* \"contracts/kipu.sol\":3191:3192  0 */\n  0x00\n    /* \"contracts/kipu.sol\":3163:3171  registro */\n  0x01\n    /* \"contracts/kipu.sol\":3163:3188  registro.numerosDeRetiros */\n  dup1\n  add\n    /* \"contracts/kipu.sol\":3163:3192  registro.numerosDeRetiros = 0 */\n  dup2\n  swap1\n  sstore\n  pop\n    /* \"contracts/kipu.sol\":2993:3199  constructor(uint256 _bankCap, uint256 _umbralRetiro) {... */\n  pop\n  pop\n    /* \"contracts/kipu.sol\":300:6222  contract KipuBank {... */\n  jump(tag_6)\n    /* \"#utility.yul\":88:205   */\ntag_8:\n    /* \"#utility.yul\":197:198   */\n  0x00\n    /* \"#utility.yul\":194:195   */\n  0x00\n    /* \"#utility.yul\":187:199   */\n  revert\n    /* \"#utility.yul\":334:411   */\ntag_10:\n    /* \"#utility.yul\":371:378   */\n  0x00\n    /* \"#utility.yul\":400:405   */\n  dup2\n    /* \"#utility.yul\":389:405   */\n  swap1\n  pop\n    /* \"#utility.yul\":334:411   */\n  swap2\n  swap1\n  pop\n  jump\t// out\n    /* \"#utility.yul\":417:539   */\ntag_11:\n    /* \"#utility.yul\":490:514   */\n  tag_19\n    /* \"#utility.yul\":508:513   */\n  dup2\n    /* \"#utility.yul\":490:514   */\n  tag_10\n  jump\t// in\ntag_19:\n    /* \"#utility.yul\":483:488   */\n  dup2\n    /* \"#utility.yul\":480:515   */\n  eq\n    /* \"#utility.yul\":470:533   */\n  tag_20\n  jumpi\n    /* \"#utility.yul\":529:530   */\n  0x00\n    /* \"#utility.yul\":526:527   */\n  0x00\n    /* \"#utility.yul\":519:531   */\n  revert\n    /* \"#utility.yul\":470:533   */\ntag_20:\n    /* \"#utility.yul\":417:539   */\n  pop\n  jump\t// out\n    /* \"#utility.yul\":545:688   */\ntag_12:\n    /* \"#utility.yul\":602:607   */\n  0x00\n    /* \"#utility.yul\":633:639   */\n  dup2\n    /* \"#utility.yul\":627:640   */\n  mload\n    /* \"#utility.yul\":618:640   */\n  swap1\n  pop\n    /* \"#utility.yul\":649:682   */\n  tag_22\n    /* \"#utility.yul\":676:681   */\n  dup2\n    /* \"#utility.yul\":649:682   */\n  tag_11\n  jump\t// in\ntag_22:\n    /* \"#utility.yul\":545:688   */\n  swap3\n  swap2\n  pop\n  pop\n  jump\t// out\n    /* \"#utility.yul\":694:1201   */\ntag_3:\n    /* \"#utility.yul\":773:779   */\n  0x00\n    /* \"#utility.yul\":781:787   */\n  0x00\n    /* \"#utility.yul\":830:832   */\n  0x40\n    /* \"#utility.yul\":818:827   */\n  dup4\n    /* \"#utility.yul\":809:816   */\n  dup6\n    /* \"#utility.yul\":805:828   */\n  sub\n    /* \"#utility.yul\":801:833   */\n  slt\n    /* \"#utility.yul\":798:917   */\n  iszero\n  tag_24\n  jumpi\n    /* \"#utility.yul\":836:915   */\n  tag_25\n  tag_8\n  jump\t// in\ntag_25:\n    /* \"#utility.yul\":798:917   */\ntag_24:\n    /* \"#utility.yul\":956:957   */\n  0x00\n    /* \"#utility.yul\":981:1045   */\n  tag_26\n    /* \"#utility.yul\":1037:1044   */\n  dup6\n    /* \"#utility.yul\":1028:1034   */\n  dup3\n    /* \"#utility.yul\":1017:1026   */\n  dup7\n    /* \"#utility.yul\":1013:1035   */\n  add\n    /* \"#utility.yul\":981:1045   */\n  tag_12\n  jump\t// in\ntag_26:\n    /* \"#utility.yul\":971:1045   */\n  swap3\n  pop\n    /* \"#utility.yul\":927:1055   */\n  pop\n    /* \"#utility.yul\":1094:1096   */\n  0x20\n    /* \"#utility.yul\":1120:1184   */\n  tag_27\n    /* \"#utility.yul\":1176:1183   */\n  dup6\n    /* \"#utility.yul\":1167:1173   */\n  dup3\n    /* \"#utility.yul\":1156:1165   */\n  dup7\n    /* \"#utility.yul\":1152:1174   */\n  add\n    /* \"#utility.yul\":1120:1184   */\n  tag_12\n  jump\t// in\ntag_27:\n    /* \"#utility.yul\":1110:1184   */\n  swap2\n  pop\n    /* \"#utility.yul\":1065:1194   */\n  pop\n    /* \"#utility.yul\":694:1201   */\n  swap3\n  pop\n  swap3\n  swap1\n  pop\n  jump\t// out\n    /* \"contracts/kipu.sol\":300:6222  contract KipuBank {... */\ntag_6:\n  mload(0x80)\n  mload(0xa0)\n  codecopy(0x00, dataOffset(sub_0), dataSize(sub_0))\n  0x00\n  assignImmutable(\"0x1572b593c53d839d80004aa4b8c51211864104f06ace9e22be9c4365b50655ea\")\n  0x00\n  assignImmutable(\"0x731dc163f73d31d8c68f9917ce4ff967753939f70432973c04fd2c2a48148607\")\n  return(0x00, dataSize(sub_0))\nstop\n\nsub_0: assembly {\n        /* \"contracts/kipu.sol\":300:6222  contract KipuBank {... */\n      mstore(0x40, 0x80)\n      jumpi(tag_1, lt(calldatasize, 0x04))\n      shr(0xe0, calldataload(0x00))\n      dup1\n      0x46200daa\n      gt\n      tag_10\n      jumpi\n      dup1\n      0x46200daa\n      eq\n      tag_6\n      jumpi\n      dup1\n      0x7af327a0\n      eq\n      tag_7\n      jumpi\n      dup1\n      0x99f6383e\n      eq\n      tag_8\n      jumpi\n      dup1\n      0xbc896d53\n      eq\n      tag_9\n      jumpi\n      jump(tag_2)\n    tag_10:\n      dup1\n      0x2c8fce25\n      eq\n      tag_3\n      jumpi\n      dup1\n      0x33ecf422\n      eq\n      tag_4\n      jumpi\n      dup1\n      0x3a97091a\n      eq\n      tag_5\n      jumpi\n      jump(tag_2)\n    tag_1:\n      jumpi(tag_2, calldatasize)\n      stop\n    tag_2:\n      callvalue\n      dup1\n      iszero\n      tag_13\n      jumpi\n      revert(0x00, 0x00)\n    tag_13:\n      stop\n        /* \"contracts/kipu.sol\":6125:6220  function verUmbralDeRetiro() public view returns (uint256) {... */\n    tag_3:\n      callvalue\n      dup1\n      iszero\n      tag_16\n      jumpi\n      revert(0x00, 0x00)\n    tag_16:\n      pop\n      tag_17\n      tag_18\n      jump\t// in\n    tag_17:\n      mload(0x40)\n      tag_19\n      swap2\n      swap1\n      tag_20\n      jump\t// in\n    tag_19:\n      mload(0x40)\n      dup1\n      swap2\n      sub\n      swap1\n      return\n        /* \"contracts/kipu.sol\":5917:6060  function verRegistros() public view returns (uint256, uint256) {... */\n    tag_4:\n      callvalue\n      dup1\n      iszero\n      tag_21\n      jumpi\n      revert(0x00, 0x00)\n    tag_21:\n      pop\n      tag_22\n      tag_23\n      jump\t// in\n    tag_22:\n      mload(0x40)\n      tag_24\n      swap3\n      swap2\n      swap1\n      tag_25\n      jump\t// in\n    tag_24:\n      mload(0x40)\n      dup1\n      swap2\n      sub\n      swap1\n      return\n        /* \"contracts/kipu.sol\":5729:5812  function verBankCap() public view returns (uint256) {... */\n    tag_5:\n      callvalue\n      dup1\n      iszero\n      tag_26\n      jumpi\n      revert(0x00, 0x00)\n    tag_26:\n      pop\n      tag_27\n      tag_28\n      jump\t// in\n    tag_27:\n      mload(0x40)\n      tag_29\n      swap2\n      swap1\n      tag_20\n      jump\t// in\n    tag_29:\n      mload(0x40)\n      dup1\n      swap2\n      sub\n      swap1\n      return\n        /* \"contracts/kipu.sol\":5383:5494  function balanceUsuario(address usuario) public view returns (uint256) {... */\n    tag_6:\n      callvalue\n      dup1\n      iszero\n      tag_30\n      jumpi\n      revert(0x00, 0x00)\n    tag_30:\n      pop\n      tag_31\n      0x04\n      dup1\n      calldatasize\n      sub\n      dup2\n      add\n      swap1\n      tag_32\n      swap2\n      swap1\n      tag_33\n      jump\t// in\n    tag_32:\n      tag_34\n      jump\t// in\n    tag_31:\n      mload(0x40)\n      tag_35\n      swap2\n      swap1\n      tag_20\n      jump\t// in\n    tag_35:\n      mload(0x40)\n      dup1\n      swap2\n      sub\n      swap1\n      return\n        /* \"contracts/kipu.sol\":4233:4627  function deposito() external payable {... */\n    tag_7:\n      tag_36\n      tag_37\n      jump\t// in\n    tag_36:\n      stop\n        /* \"contracts/kipu.sol\":5572:5673  function verDepositosTotales() public view returns (uint256) {... */\n    tag_8:\n      callvalue\n      dup1\n      iszero\n      tag_38\n      jumpi\n      revert(0x00, 0x00)\n    tag_38:\n      pop\n      tag_39\n      tag_40\n      jump\t// in\n    tag_39:\n      mload(0x40)\n      tag_41\n      swap2\n      swap1\n      tag_20\n      jump\t// in\n    tag_41:\n      mload(0x40)\n      dup1\n      swap2\n      sub\n      swap1\n      return\n        /* \"contracts/kipu.sol\":3607:4151  function retiro(uint256 cantidad) external onlyOwnerBoveda {... */\n    tag_9:\n      callvalue\n      dup1\n      iszero\n      tag_42\n      jumpi\n      revert(0x00, 0x00)\n    tag_42:\n      pop\n      tag_43\n      0x04\n      dup1\n      calldatasize\n      sub\n      dup2\n      add\n      swap1\n      tag_44\n      swap2\n      swap1\n      tag_45\n      jump\t// in\n    tag_44:\n      tag_46\n      jump\t// in\n    tag_43:\n      stop\n        /* \"contracts/kipu.sol\":6125:6220  function verUmbralDeRetiro() public view returns (uint256) {... */\n    tag_18:\n        /* \"contracts/kipu.sol\":6175:6182  uint256 */\n      0x00\n        /* \"contracts/kipu.sol\":6201:6213  umbralRetiro */\n      immutable(\"0x731dc163f73d31d8c68f9917ce4ff967753939f70432973c04fd2c2a48148607\")\n        /* \"contracts/kipu.sol\":6194:6213  return umbralRetiro */\n      swap1\n      pop\n        /* \"contracts/kipu.sol\":6125:6220  function verUmbralDeRetiro() public view returns (uint256) {... */\n      swap1\n      jump\t// out\n        /* \"contracts/kipu.sol\":5917:6060  function verRegistros() public view returns (uint256, uint256) {... */\n    tag_23:\n        /* \"contracts/kipu.sol\":5962:5969  uint256 */\n      0x00\n        /* \"contracts/kipu.sol\":5971:5978  uint256 */\n      0x00\n        /* \"contracts/kipu.sol\":5998:6006  registro */\n      0x01\n        /* \"contracts/kipu.sol\":5998:6025  registro.numerosDeDepositos */\n      0x00\n      add\n      sload\n        /* \"contracts/kipu.sol\":6027:6035  registro */\n      0x01\n        /* \"contracts/kipu.sol\":6027:6052  registro.numerosDeRetiros */\n      dup1\n      add\n      sload\n        /* \"contracts/kipu.sol\":5990:6053  return (registro.numerosDeDepositos, registro.numerosDeRetiros) */\n      swap2\n      pop\n      swap2\n      pop\n        /* \"contracts/kipu.sol\":5917:6060  function verRegistros() public view returns (uint256, uint256) {... */\n      swap1\n      swap2\n      jump\t// out\n        /* \"contracts/kipu.sol\":5729:5812  function verBankCap() public view returns (uint256) {... */\n    tag_28:\n        /* \"contracts/kipu.sol\":5772:5779  uint256 */\n      0x00\n        /* \"contracts/kipu.sol\":5798:5805  bankCap */\n      immutable(\"0x1572b593c53d839d80004aa4b8c51211864104f06ace9e22be9c4365b50655ea\")\n        /* \"contracts/kipu.sol\":5791:5805  return bankCap */\n      swap1\n      pop\n        /* \"contracts/kipu.sol\":5729:5812  function verBankCap() public view returns (uint256) {... */\n      swap1\n      jump\t// out\n        /* \"contracts/kipu.sol\":5383:5494  function balanceUsuario(address usuario) public view returns (uint256) {... */\n    tag_34:\n        /* \"contracts/kipu.sol\":5445:5452  uint256 */\n      0x00\n        /* \"contracts/kipu.sol\":5471:5478  bovedas */\n      0x00\n        /* \"contracts/kipu.sol\":5471:5487  bovedas[usuario] */\n      0x00\n        /* \"contracts/kipu.sol\":5479:5486  usuario */\n      dup4\n        /* \"contracts/kipu.sol\":5471:5487  bovedas[usuario] */\n      0xffffffffffffffffffffffffffffffffffffffff\n      and\n      0xffffffffffffffffffffffffffffffffffffffff\n      and\n      dup2\n      mstore\n      0x20\n      add\n      swap1\n      dup2\n      mstore\n      0x20\n      add\n      0x00\n      keccak256\n      sload\n        /* \"contracts/kipu.sol\":5464:5487  return bovedas[usuario] */\n      swap1\n      pop\n        /* \"contracts/kipu.sol\":5383:5494  function balanceUsuario(address usuario) public view returns (uint256) {... */\n      swap2\n      swap1\n      pop\n      jump\t// out\n        /* \"contracts/kipu.sol\":4233:4627  function deposito() external payable {... */\n    tag_37:\n        /* \"contracts/kipu.sol\":4297:4298  0 */\n      0x00\n        /* \"contracts/kipu.sol\":4284:4293  msg.value */\n      callvalue\n        /* \"contracts/kipu.sol\":4284:4298  msg.value <= 0 */\n      gt\n        /* \"contracts/kipu.sol\":4280:4337  if (msg.value <= 0) revert ValorNoPuedeSerCeroONegativo() */\n      tag_52\n      jumpi\n        /* \"contracts/kipu.sol\":4307:4337  ValorNoPuedeSerCeroONegativo() */\n      mload(0x40)\n      0x92749bd900000000000000000000000000000000000000000000000000000000\n      dup2\n      mstore\n      0x04\n      add\n      mload(0x40)\n      dup1\n      swap2\n      sub\n      swap1\n      revert\n        /* \"contracts/kipu.sol\":4280:4337  if (msg.value <= 0) revert ValorNoPuedeSerCeroONegativo() */\n    tag_52:\n        /* \"contracts/kipu.sol\":4382:4389  bankCap */\n      immutable(\"0x1572b593c53d839d80004aa4b8c51211864104f06ace9e22be9c4365b50655ea\")\n        /* \"contracts/kipu.sol\":4363:4379  depositosTotales */\n      sload(0x03)\n        /* \"contracts/kipu.sol\":4351:4360  msg.value */\n      callvalue\n        /* \"contracts/kipu.sol\":4351:4379  msg.value + depositosTotales */\n      tag_53\n      swap2\n      swap1\n      tag_54\n      jump\t// in\n    tag_53:\n        /* \"contracts/kipu.sol\":4351:4389  msg.value + depositosTotales > bankCap */\n      gt\n        /* \"contracts/kipu.sol\":4347:4445  if (msg.value + depositosTotales > bankCap)... */\n      iszero\n      tag_55\n      jumpi\n        /* \"contracts/kipu.sol\":4426:4435  msg.value */\n      callvalue\n        /* \"contracts/kipu.sol\":4437:4444  bankCap */\n      immutable(\"0x1572b593c53d839d80004aa4b8c51211864104f06ace9e22be9c4365b50655ea\")\n        /* \"contracts/kipu.sol\":4410:4445  BankCapExcedido(msg.value, bankCap) */\n      mload(0x40)\n      0xf8953af000000000000000000000000000000000000000000000000000000000\n      dup2\n      mstore\n      0x04\n      add\n      tag_56\n      swap3\n      swap2\n      swap1\n      tag_25\n      jump\t// in\n    tag_56:\n      mload(0x40)\n      dup1\n      swap2\n      sub\n      swap1\n      revert\n        /* \"contracts/kipu.sol\":4347:4445  if (msg.value + depositosTotales > bankCap)... */\n    tag_55:\n        /* \"contracts/kipu.sol\":4479:4488  msg.value */\n      callvalue\n        /* \"contracts/kipu.sol\":4456:4463  bovedas */\n      0x00\n        /* \"contracts/kipu.sol\":4456:4475  bovedas[msg.sender] */\n      0x00\n        /* \"contracts/kipu.sol\":4464:4474  msg.sender */\n      caller\n        /* \"contracts/kipu.sol\":4456:4475  bovedas[msg.sender] */\n      0xffffffffffffffffffffffffffffffffffffffff\n      and\n      0xffffffffffffffffffffffffffffffffffffffff\n      and\n      dup2\n      mstore\n      0x20\n      add\n      swap1\n      dup2\n      mstore\n      0x20\n      add\n      0x00\n      keccak256\n      0x00\n        /* \"contracts/kipu.sol\":4456:4488  bovedas[msg.sender] += msg.value */\n      dup3\n      dup3\n      sload\n      tag_57\n      swap2\n      swap1\n      tag_54\n      jump\t// in\n    tag_57:\n      swap3\n      pop\n      pop\n      dup2\n      swap1\n      sstore\n      pop\n        /* \"contracts/kipu.sol\":4518:4527  msg.value */\n      callvalue\n        /* \"contracts/kipu.sol\":4498:4514  depositosTotales */\n      0x03\n      0x00\n        /* \"contracts/kipu.sol\":4498:4527  depositosTotales += msg.value */\n      dup3\n      dup3\n      sload\n      tag_58\n      swap2\n      swap1\n      tag_54\n      jump\t// in\n    tag_58:\n      swap3\n      pop\n      pop\n      dup2\n      swap1\n      sstore\n      pop\n        /* \"contracts/kipu.sol\":4537:4545  registro */\n      0x01\n        /* \"contracts/kipu.sol\":4537:4564  registro.numerosDeDepositos */\n      0x00\n      add\n      0x00\n        /* \"contracts/kipu.sol\":4537:4566  registro.numerosDeDepositos++ */\n      dup2\n      sload\n      dup1\n      swap3\n      swap2\n      swap1\n      tag_59\n      swap1\n      tag_60\n      jump\t// in\n    tag_59:\n      swap2\n      swap1\n      pop\n      sstore\n      pop\n        /* \"contracts/kipu.sol\":4582:4620  DepositoExitoso(msg.sender, msg.value) */\n      0x8e13c232b6ad491513c1540f8bc226e1c5072f2f8b9bcd13088a478c67fd5a49\n        /* \"contracts/kipu.sol\":4598:4608  msg.sender */\n      caller\n        /* \"contracts/kipu.sol\":4610:4619  msg.value */\n      callvalue\n        /* \"contracts/kipu.sol\":4582:4620  DepositoExitoso(msg.sender, msg.value) */\n      mload(0x40)\n      tag_61\n      swap3\n      swap2\n      swap1\n      tag_62\n      jump\t// in\n    tag_61:\n      mload(0x40)\n      dup1\n      swap2\n      sub\n      swap1\n      log1\n        /* \"contracts/kipu.sol\":4233:4627  function deposito() external payable {... */\n      jump\t// out\n        /* \"contracts/kipu.sol\":5572:5673  function verDepositosTotales() public view returns (uint256) {... */\n    tag_40:\n        /* \"contracts/kipu.sol\":5624:5631  uint256 */\n      0x00\n        /* \"contracts/kipu.sol\":5650:5666  depositosTotales */\n      sload(0x03)\n        /* \"contracts/kipu.sol\":5643:5666  return depositosTotales */\n      swap1\n      pop\n        /* \"contracts/kipu.sol\":5572:5673  function verDepositosTotales() public view returns (uint256) {... */\n      swap1\n      jump\t// out\n        /* \"contracts/kipu.sol\":3607:4151  function retiro(uint256 cantidad) external onlyOwnerBoveda {... */\n    tag_46:\n        /* \"contracts/kipu.sol\":2734:2735  0 */\n      0x00\n        /* \"contracts/kipu.sol\":2711:2718  bovedas */\n      0x00\n        /* \"contracts/kipu.sol\":2711:2730  bovedas[msg.sender] */\n      0x00\n        /* \"contracts/kipu.sol\":2719:2729  msg.sender */\n      caller\n        /* \"contracts/kipu.sol\":2711:2730  bovedas[msg.sender] */\n      0xffffffffffffffffffffffffffffffffffffffff\n      and\n      0xffffffffffffffffffffffffffffffffffffffff\n      and\n      dup2\n      mstore\n      0x20\n      add\n      swap1\n      dup2\n      mstore\n      0x20\n      add\n      0x00\n      keccak256\n      sload\n        /* \"contracts/kipu.sol\":2711:2735  bovedas[msg.sender] == 0 */\n      sub\n        /* \"contracts/kipu.sol\":2707:2786  if (bovedas[msg.sender] == 0) {... */\n      tag_65\n      jumpi\n        /* \"contracts/kipu.sol\":2758:2775  NoEsOwnerBoveda() */\n      mload(0x40)\n      0xed6800d900000000000000000000000000000000000000000000000000000000\n      dup2\n      mstore\n      0x04\n      add\n      mload(0x40)\n      dup1\n      swap2\n      sub\n      swap1\n      revert\n        /* \"contracts/kipu.sol\":2707:2786  if (bovedas[msg.sender] == 0) {... */\n    tag_65:\n        /* \"contracts/kipu.sol\":3692:3693  0 */\n      0x00\n        /* \"contracts/kipu.sol\":3680:3688  cantidad */\n      dup2\n        /* \"contracts/kipu.sol\":3680:3693  cantidad <= 0 */\n      gt\n        /* \"contracts/kipu.sol\":3676:3732  if (cantidad <= 0) revert ValorNoPuedeSerCeroONegativo() */\n      tag_67\n      jumpi\n        /* \"contracts/kipu.sol\":3702:3732  ValorNoPuedeSerCeroONegativo() */\n      mload(0x40)\n      0x92749bd900000000000000000000000000000000000000000000000000000000\n      dup2\n      mstore\n      0x04\n      add\n      mload(0x40)\n      dup1\n      swap2\n      sub\n      swap1\n      revert\n        /* \"contracts/kipu.sol\":3676:3732  if (cantidad <= 0) revert ValorNoPuedeSerCeroONegativo() */\n    tag_67:\n        /* \"contracts/kipu.sol\":3757:3764  bovedas */\n      0x00\n        /* \"contracts/kipu.sol\":3757:3776  bovedas[msg.sender] */\n      0x00\n        /* \"contracts/kipu.sol\":3765:3775  msg.sender */\n      caller\n        /* \"contracts/kipu.sol\":3757:3776  bovedas[msg.sender] */\n      0xffffffffffffffffffffffffffffffffffffffff\n      and\n      0xffffffffffffffffffffffffffffffffffffffff\n      and\n      dup2\n      mstore\n      0x20\n      add\n      swap1\n      dup2\n      mstore\n      0x20\n      add\n      0x00\n      keccak256\n      sload\n        /* \"contracts/kipu.sol\":3746:3754  cantidad */\n      dup2\n        /* \"contracts/kipu.sol\":3746:3776  cantidad > bovedas[msg.sender] */\n      gt\n        /* \"contracts/kipu.sol\":3742:3845  if (cantidad > bovedas[msg.sender])... */\n      iszero\n      tag_68\n      jumpi\n        /* \"contracts/kipu.sol\":3815:3822  bovedas */\n      0x00\n        /* \"contracts/kipu.sol\":3815:3834  bovedas[msg.sender] */\n      0x00\n        /* \"contracts/kipu.sol\":3823:3833  msg.sender */\n      caller\n        /* \"contracts/kipu.sol\":3815:3834  bovedas[msg.sender] */\n      0xffffffffffffffffffffffffffffffffffffffff\n      and\n      0xffffffffffffffffffffffffffffffffffffffff\n      and\n      dup2\n      mstore\n      0x20\n      add\n      swap1\n      dup2\n      mstore\n      0x20\n      add\n      0x00\n      keccak256\n      sload\n        /* \"contracts/kipu.sol\":3836:3844  cantidad */\n      dup2\n        /* \"contracts/kipu.sol\":3797:3845  SaldoInsuficiente(bovedas[msg.sender], cantidad) */\n      mload(0x40)\n      0x9d8b89ca00000000000000000000000000000000000000000000000000000000\n      dup2\n      mstore\n      0x04\n      add\n      tag_69\n      swap3\n      swap2\n      swap1\n      tag_25\n      jump\t// in\n    tag_69:\n      mload(0x40)\n      dup1\n      swap2\n      sub\n      swap1\n      revert\n        /* \"contracts/kipu.sol\":3742:3845  if (cantidad > bovedas[msg.sender])... */\n    tag_68:\n        /* \"contracts/kipu.sol\":3870:3882  umbralRetiro */\n      immutable(\"0x731dc163f73d31d8c68f9917ce4ff967753939f70432973c04fd2c2a48148607\")\n        /* \"contracts/kipu.sol\":3859:3867  cantidad */\n      dup2\n        /* \"contracts/kipu.sol\":3859:3882  cantidad > umbralRetiro */\n      gt\n        /* \"contracts/kipu.sol\":3855:3941  if (cantidad > umbralRetiro)... */\n      iszero\n      tag_70\n      jumpi\n        /* \"contracts/kipu.sol\":3918:3926  cantidad */\n      dup1\n        /* \"contracts/kipu.sol\":3928:3940  umbralRetiro */\n      immutable(\"0x731dc163f73d31d8c68f9917ce4ff967753939f70432973c04fd2c2a48148607\")\n        /* \"contracts/kipu.sol\":3903:3941  RetiroNoValido(cantidad, umbralRetiro) */\n      mload(0x40)\n      0x8e6096bb00000000000000000000000000000000000000000000000000000000\n      dup2\n      mstore\n      0x04\n      add\n      tag_71\n      swap3\n      swap2\n      swap1\n      tag_25\n      jump\t// in\n    tag_71:\n      mload(0x40)\n      dup1\n      swap2\n      sub\n      swap1\n      revert\n        /* \"contracts/kipu.sol\":3855:3941  if (cantidad > umbralRetiro)... */\n    tag_70:\n        /* \"contracts/kipu.sol\":3975:3983  cantidad */\n      dup1\n        /* \"contracts/kipu.sol\":3952:3959  bovedas */\n      0x00\n        /* \"contracts/kipu.sol\":3952:3971  bovedas[msg.sender] */\n      0x00\n        /* \"contracts/kipu.sol\":3960:3970  msg.sender */\n      caller\n        /* \"contracts/kipu.sol\":3952:3971  bovedas[msg.sender] */\n      0xffffffffffffffffffffffffffffffffffffffff\n      and\n      0xffffffffffffffffffffffffffffffffffffffff\n      and\n      dup2\n      mstore\n      0x20\n      add\n      swap1\n      dup2\n      mstore\n      0x20\n      add\n      0x00\n      keccak256\n      0x00\n        /* \"contracts/kipu.sol\":3952:3983  bovedas[msg.sender] -= cantidad */\n      dup3\n      dup3\n      sload\n      tag_72\n      swap2\n      swap1\n      tag_73\n      jump\t// in\n    tag_72:\n      swap3\n      pop\n      pop\n      dup2\n      swap1\n      sstore\n      pop\n        /* \"contracts/kipu.sol\":4013:4021  cantidad */\n      dup1\n        /* \"contracts/kipu.sol\":3993:4009  depositosTotales */\n      0x03\n      0x00\n        /* \"contracts/kipu.sol\":3993:4021  depositosTotales -= cantidad */\n      dup3\n      dup3\n      sload\n      tag_74\n      swap2\n      swap1\n      tag_73\n      jump\t// in\n    tag_74:\n      swap3\n      pop\n      pop\n      dup2\n      swap1\n      sstore\n      pop\n        /* \"contracts/kipu.sol\":4031:4039  registro */\n      0x01\n        /* \"contracts/kipu.sol\":4031:4056  registro.numerosDeRetiros */\n      dup1\n      add\n      0x00\n        /* \"contracts/kipu.sol\":4031:4058  registro.numerosDeRetiros++ */\n      dup2\n      sload\n      dup1\n      swap3\n      swap2\n      swap1\n      tag_75\n      swap1\n      tag_60\n      jump\t// in\n    tag_75:\n      swap2\n      swap1\n      pop\n      sstore\n      pop\n        /* \"contracts/kipu.sol\":4069:4093  _transferirETH(cantidad) */\n      tag_76\n        /* \"contracts/kipu.sol\":4084:4092  cantidad */\n      dup2\n        /* \"contracts/kipu.sol\":4069:4083  _transferirETH */\n      tag_77\n        /* \"contracts/kipu.sol\":4069:4093  _transferirETH(cantidad) */\n      jump\t// in\n    tag_76:\n        /* \"contracts/kipu.sol\":4109:4144  RetiroExitoso(msg.sender, cantidad) */\n      0x6553d752fc46d96aab714525ba8f58c666892e2a31f2bf65d6d87db515bf81aa\n        /* \"contracts/kipu.sol\":4123:4133  msg.sender */\n      caller\n        /* \"contracts/kipu.sol\":4135:4143  cantidad */\n      dup3\n        /* \"contracts/kipu.sol\":4109:4144  RetiroExitoso(msg.sender, cantidad) */\n      mload(0x40)\n      tag_78\n      swap3\n      swap2\n      swap1\n      tag_62\n      jump\t// in\n    tag_78:\n      mload(0x40)\n      dup1\n      swap2\n      sub\n      swap1\n      log1\n        /* \"contracts/kipu.sol\":3607:4151  function retiro(uint256 cantidad) external onlyOwnerBoveda {... */\n      pop\n      jump\t// out\n        /* \"contracts/kipu.sol\":4976:5167  function _transferirETH(uint256 cantidad) private {... */\n    tag_77:\n        /* \"contracts/kipu.sol\":5037:5047  bool exito */\n      0x00\n        /* \"contracts/kipu.sol\":5053:5063  msg.sender */\n      caller\n        /* \"contracts/kipu.sol\":5053:5068  msg.sender.call */\n      0xffffffffffffffffffffffffffffffffffffffff\n      and\n        /* \"contracts/kipu.sol\":5076:5084  cantidad */\n      dup3\n        /* \"contracts/kipu.sol\":5053:5089  msg.sender.call{value: cantidad}(\"\") */\n      mload(0x40)\n      tag_80\n      swap1\n      tag_81\n      jump\t// in\n    tag_80:\n      0x00\n      mload(0x40)\n      dup1\n      dup4\n      sub\n      dup2\n      dup6\n      dup8\n      gas\n      call\n      swap3\n      pop\n      pop\n      pop\n      returndatasize\n      dup1\n      0x00\n      dup2\n      eq\n      tag_84\n      jumpi\n      mload(0x40)\n      swap2\n      pop\n      and(add(returndatasize, 0x3f), not(0x1f))\n      dup3\n      add\n      0x40\n      mstore\n      returndatasize\n      dup3\n      mstore\n      returndatasize\n      0x00\n      0x20\n      dup5\n      add\n      returndatacopy\n      jump(tag_83)\n    tag_84:\n      0x60\n      swap2\n      pop\n    tag_83:\n      pop\n        /* \"contracts/kipu.sol\":5036:5089  (bool exito, ) = msg.sender.call{value: cantidad}(\"\") */\n      pop\n      swap1\n      pop\n        /* \"contracts/kipu.sol\":5104:5109  exito */\n      dup1\n        /* \"contracts/kipu.sol\":5099:5160  if (!exito) revert TransferenciaFallida(msg.sender, cantidad) */\n      tag_85\n      jumpi\n        /* \"contracts/kipu.sol\":5139:5149  msg.sender */\n      caller\n        /* \"contracts/kipu.sol\":5151:5159  cantidad */\n      dup3\n        /* \"contracts/kipu.sol\":5118:5160  TransferenciaFallida(msg.sender, cantidad) */\n      mload(0x40)\n      0xc66cee3800000000000000000000000000000000000000000000000000000000\n      dup2\n      mstore\n      0x04\n      add\n      tag_86\n      swap3\n      swap2\n      swap1\n      tag_62\n      jump\t// in\n    tag_86:\n      mload(0x40)\n      dup1\n      swap2\n      sub\n      swap1\n      revert\n        /* \"contracts/kipu.sol\":5099:5160  if (!exito) revert TransferenciaFallida(msg.sender, cantidad) */\n    tag_85:\n        /* \"contracts/kipu.sol\":5026:5167  {... */\n      pop\n        /* \"contracts/kipu.sol\":4976:5167  function _transferirETH(uint256 cantidad) private {... */\n      pop\n      jump\t// out\n        /* \"#utility.yul\":7:84   */\n    tag_87:\n        /* \"#utility.yul\":44:51   */\n      0x00\n        /* \"#utility.yul\":73:78   */\n      dup2\n        /* \"#utility.yul\":62:78   */\n      swap1\n      pop\n        /* \"#utility.yul\":7:84   */\n      swap2\n      swap1\n      pop\n      jump\t// out\n        /* \"#utility.yul\":90:208   */\n    tag_88:\n        /* \"#utility.yul\":177:201   */\n      tag_106\n        /* \"#utility.yul\":195:200   */\n      dup2\n        /* \"#utility.yul\":177:201   */\n      tag_87\n      jump\t// in\n    tag_106:\n        /* \"#utility.yul\":172:175   */\n      dup3\n        /* \"#utility.yul\":165:202   */\n      mstore\n        /* \"#utility.yul\":90:208   */\n      pop\n      pop\n      jump\t// out\n        /* \"#utility.yul\":214:436   */\n    tag_20:\n        /* \"#utility.yul\":307:311   */\n      0x00\n        /* \"#utility.yul\":345:347   */\n      0x20\n        /* \"#utility.yul\":334:343   */\n      dup3\n        /* \"#utility.yul\":330:348   */\n      add\n        /* \"#utility.yul\":322:348   */\n      swap1\n      pop\n        /* \"#utility.yul\":358:429   */\n      tag_108\n        /* \"#utility.yul\":426:427   */\n      0x00\n        /* \"#utility.yul\":415:424   */\n      dup4\n        /* \"#utility.yul\":411:428   */\n      add\n        /* \"#utility.yul\":402:408   */\n      dup5\n        /* \"#utility.yul\":358:429   */\n      tag_88\n      jump\t// in\n    tag_108:\n        /* \"#utility.yul\":214:436   */\n      swap3\n      swap2\n      pop\n      pop\n      jump\t// out\n        /* \"#utility.yul\":442:774   */\n    tag_25:\n        /* \"#utility.yul\":563:567   */\n      0x00\n        /* \"#utility.yul\":601:603   */\n      0x40\n        /* \"#utility.yul\":590:599   */\n      dup3\n        /* \"#utility.yul\":586:604   */\n      add\n        /* \"#utility.yul\":578:604   */\n      swap1\n      pop\n        /* \"#utility.yul\":614:685   */\n      tag_110\n        /* \"#utility.yul\":682:683   */\n      0x00\n        /* \"#utility.yul\":671:680   */\n      dup4\n        /* \"#utility.yul\":667:684   */\n      add\n        /* \"#utility.yul\":658:664   */\n      dup6\n        /* \"#utility.yul\":614:685   */\n      tag_88\n      jump\t// in\n    tag_110:\n        /* \"#utility.yul\":695:767   */\n      tag_111\n        /* \"#utility.yul\":763:765   */\n      0x20\n        /* \"#utility.yul\":752:761   */\n      dup4\n        /* \"#utility.yul\":748:766   */\n      add\n        /* \"#utility.yul\":739:745   */\n      dup5\n        /* \"#utility.yul\":695:767   */\n      tag_88\n      jump\t// in\n    tag_111:\n        /* \"#utility.yul\":442:774   */\n      swap4\n      swap3\n      pop\n      pop\n      pop\n      jump\t// out\n        /* \"#utility.yul\":861:978   */\n    tag_90:\n        /* \"#utility.yul\":970:971   */\n      0x00\n        /* \"#utility.yul\":967:968   */\n      0x00\n        /* \"#utility.yul\":960:972   */\n      revert\n        /* \"#utility.yul\":1107:1233   */\n    tag_92:\n        /* \"#utility.yul\":1144:1151   */\n      0x00\n        /* \"#utility.yul\":1184:1226   */\n      0xffffffffffffffffffffffffffffffffffffffff\n        /* \"#utility.yul\":1177:1182   */\n      dup3\n        /* \"#utility.yul\":1173:1227   */\n      and\n        /* \"#utility.yul\":1162:1227   */\n      swap1\n      pop\n        /* \"#utility.yul\":1107:1233   */\n      swap2\n      swap1\n      pop\n      jump\t// out\n        /* \"#utility.yul\":1239:1335   */\n    tag_93:\n        /* \"#utility.yul\":1276:1283   */\n      0x00\n        /* \"#utility.yul\":1305:1329   */\n      tag_117\n        /* \"#utility.yul\":1323:1328   */\n      dup3\n        /* \"#utility.yul\":1305:1329   */\n      tag_92\n      jump\t// in\n    tag_117:\n        /* \"#utility.yul\":1294:1329   */\n      swap1\n      pop\n        /* \"#utility.yul\":1239:1335   */\n      swap2\n      swap1\n      pop\n      jump\t// out\n        /* \"#utility.yul\":1341:1463   */\n    tag_94:\n        /* \"#utility.yul\":1414:1438   */\n      tag_119\n        /* \"#utility.yul\":1432:1437   */\n      dup2\n        /* \"#utility.yul\":1414:1438   */\n      tag_93\n      jump\t// in\n    tag_119:\n        /* \"#utility.yul\":1407:1412   */\n      dup2\n        /* \"#utility.yul\":1404:1439   */\n      eq\n        /* \"#utility.yul\":1394:1457   */\n      tag_120\n      jumpi\n        /* \"#utility.yul\":1453:1454   */\n      0x00\n        /* \"#utility.yul\":1450:1451   */\n      0x00\n        /* \"#utility.yul\":1443:1455   */\n      revert\n        /* \"#utility.yul\":1394:1457   */\n    tag_120:\n        /* \"#utility.yul\":1341:1463   */\n      pop\n      jump\t// out\n        /* \"#utility.yul\":1469:1608   */\n    tag_95:\n        /* \"#utility.yul\":1515:1520   */\n      0x00\n        /* \"#utility.yul\":1553:1559   */\n      dup2\n        /* \"#utility.yul\":1540:1560   */\n      calldataload\n        /* \"#utility.yul\":1531:1560   */\n      swap1\n      pop\n        /* \"#utility.yul\":1569:1602   */\n      tag_122\n        /* \"#utility.yul\":1596:1601   */\n      dup2\n        /* \"#utility.yul\":1569:1602   */\n      tag_94\n      jump\t// in\n    tag_122:\n        /* \"#utility.yul\":1469:1608   */\n      swap3\n      swap2\n      pop\n      pop\n      jump\t// out\n        /* \"#utility.yul\":1614:1943   */\n    tag_33:\n        /* \"#utility.yul\":1673:1679   */\n      0x00\n        /* \"#utility.yul\":1722:1724   */\n      0x20\n        /* \"#utility.yul\":1710:1719   */\n      dup3\n        /* \"#utility.yul\":1701:1708   */\n      dup5\n        /* \"#utility.yul\":1697:1720   */\n      sub\n        /* \"#utility.yul\":1693:1725   */\n      slt\n        /* \"#utility.yul\":1690:1809   */\n      iszero\n      tag_124\n      jumpi\n        /* \"#utility.yul\":1728:1807   */\n      tag_125\n      tag_90\n      jump\t// in\n    tag_125:\n        /* \"#utility.yul\":1690:1809   */\n    tag_124:\n        /* \"#utility.yul\":1848:1849   */\n      0x00\n        /* \"#utility.yul\":1873:1926   */\n      tag_126\n        /* \"#utility.yul\":1918:1925   */\n      dup5\n        /* \"#utility.yul\":1909:1915   */\n      dup3\n        /* \"#utility.yul\":1898:1907   */\n      dup6\n        /* \"#utility.yul\":1894:1916   */\n      add\n        /* \"#utility.yul\":1873:1926   */\n      tag_95\n      jump\t// in\n    tag_126:\n        /* \"#utility.yul\":1863:1926   */\n      swap2\n      pop\n        /* \"#utility.yul\":1819:1936   */\n      pop\n        /* \"#utility.yul\":1614:1943   */\n      swap3\n      swap2\n      pop\n      pop\n      jump\t// out\n        /* \"#utility.yul\":1949:2071   */\n    tag_96:\n        /* \"#utility.yul\":2022:2046   */\n      tag_128\n        /* \"#utility.yul\":2040:2045   */\n      dup2\n        /* \"#utility.yul\":2022:2046   */\n      tag_87\n      jump\t// in\n    tag_128:\n        /* \"#utility.yul\":2015:2020   */\n      dup2\n        /* \"#utility.yul\":2012:2047   */\n      eq\n        /* \"#utility.yul\":2002:2065   */\n      tag_129\n      jumpi\n        /* \"#utility.yul\":2061:2062   */\n      0x00\n        /* \"#utility.yul\":2058:2059   */\n      0x00\n        /* \"#utility.yul\":2051:2063   */\n      revert\n        /* \"#utility.yul\":2002:2065   */\n    tag_129:\n        /* \"#utility.yul\":1949:2071   */\n      pop\n      jump\t// out\n        /* \"#utility.yul\":2077:2216   */\n    tag_97:\n        /* \"#utility.yul\":2123:2128   */\n      0x00\n        /* \"#utility.yul\":2161:2167   */\n      dup2\n        /* \"#utility.yul\":2148:2168   */\n      calldataload\n        /* \"#utility.yul\":2139:2168   */\n      swap1\n      pop\n        /* \"#utility.yul\":2177:2210   */\n      tag_131\n        /* \"#utility.yul\":2204:2209   */\n      dup2\n        /* \"#utility.yul\":2177:2210   */\n      tag_96\n      jump\t// in\n    tag_131:\n        /* \"#utility.yul\":2077:2216   */\n      swap3\n      swap2\n      pop\n      pop\n      jump\t// out\n        /* \"#utility.yul\":2222:2551   */\n    tag_45:\n        /* \"#utility.yul\":2281:2287   */\n      0x00\n        /* \"#utility.yul\":2330:2332   */\n      0x20\n        /* \"#utility.yul\":2318:2327   */\n      dup3\n        /* \"#utility.yul\":2309:2316   */\n      dup5\n        /* \"#utility.yul\":2305:2328   */\n      sub\n        /* \"#utility.yul\":2301:2333   */\n      slt\n        /* \"#utility.yul\":2298:2417   */\n      iszero\n      tag_133\n      jumpi\n        /* \"#utility.yul\":2336:2415   */\n      tag_134\n      tag_90\n      jump\t// in\n    tag_134:\n        /* \"#utility.yul\":2298:2417   */\n    tag_133:\n        /* \"#utility.yul\":2456:2457   */\n      0x00\n        /* \"#utility.yul\":2481:2534   */\n      tag_135\n        /* \"#utility.yul\":2526:2533   */\n      dup5\n        /* \"#utility.yul\":2517:2523   */\n      dup3\n        /* \"#utility.yul\":2506:2515   */\n      dup6\n        /* \"#utility.yul\":2502:2524   */\n      add\n        /* \"#utility.yul\":2481:2534   */\n      tag_97\n      jump\t// in\n    tag_135:\n        /* \"#utility.yul\":2471:2534   */\n      swap2\n      pop\n        /* \"#utility.yul\":2427:2544   */\n      pop\n        /* \"#utility.yul\":2222:2551   */\n      swap3\n      swap2\n      pop\n      pop\n      jump\t// out\n        /* \"#utility.yul\":2557:2737   */\n    tag_98:\n        /* \"#utility.yul\":2605:2682   */\n      0x4e487b7100000000000000000000000000000000000000000000000000000000\n        /* \"#utility.yul\":2602:2603   */\n      0x00\n        /* \"#utility.yul\":2595:2683   */\n      mstore\n        /* \"#utility.yul\":2702:2706   */\n      0x11\n        /* \"#utility.yul\":2699:2700   */\n      0x04\n        /* \"#utility.yul\":2692:2707   */\n      mstore\n        /* \"#utility.yul\":2726:2730   */\n      0x24\n        /* \"#utility.yul\":2723:2724   */\n      0x00\n        /* \"#utility.yul\":2716:2731   */\n      revert\n        /* \"#utility.yul\":2743:2934   */\n    tag_54:\n        /* \"#utility.yul\":2783:2786   */\n      0x00\n        /* \"#utility.yul\":2802:2822   */\n      tag_138\n        /* \"#utility.yul\":2820:2821   */\n      dup3\n        /* \"#utility.yul\":2802:2822   */\n      tag_87\n      jump\t// in\n    tag_138:\n        /* \"#utility.yul\":2797:2822   */\n      swap2\n      pop\n        /* \"#utility.yul\":2836:2856   */\n      tag_139\n        /* \"#utility.yul\":2854:2855   */\n      dup4\n        /* \"#utility.yul\":2836:2856   */\n      tag_87\n      jump\t// in\n    tag_139:\n        /* \"#utility.yul\":2831:2856   */\n      swap3\n      pop\n        /* \"#utility.yul\":2879:2880   */\n      dup3\n        /* \"#utility.yul\":2876:2877   */\n      dup3\n        /* \"#utility.yul\":2872:2881   */\n      add\n        /* \"#utility.yul\":2865:2881   */\n      swap1\n      pop\n        /* \"#utility.yul\":2900:2903   */\n      dup1\n        /* \"#utility.yul\":2897:2898   */\n      dup3\n        /* \"#utility.yul\":2894:2904   */\n      gt\n        /* \"#utility.yul\":2891:2927   */\n      iszero\n      tag_140\n      jumpi\n        /* \"#utility.yul\":2907:2925   */\n      tag_141\n      tag_98\n      jump\t// in\n    tag_141:\n        /* \"#utility.yul\":2891:2927   */\n    tag_140:\n        /* \"#utility.yul\":2743:2934   */\n      swap3\n      swap2\n      pop\n      pop\n      jump\t// out\n        /* \"#utility.yul\":2940:3173   */\n    tag_60:\n        /* \"#utility.yul\":2979:2982   */\n      0x00\n        /* \"#utility.yul\":3002:3026   */\n      tag_143\n        /* \"#utility.yul\":3020:3025   */\n      dup3\n        /* \"#utility.yul\":3002:3026   */\n      tag_87\n      jump\t// in\n    tag_143:\n        /* \"#utility.yul\":2993:3026   */\n      swap2\n      pop\n        /* \"#utility.yul\":3048:3114   */\n      0xffffffffffffffffffffffffffffffffffffffffffffffffffffffffffffffff\n        /* \"#utility.yul\":3041:3046   */\n      dup3\n        /* \"#utility.yul\":3038:3115   */\n      sub\n        /* \"#utility.yul\":3035:3138   */\n      tag_144\n      jumpi\n        /* \"#utility.yul\":3118:3136   */\n      tag_145\n      tag_98\n      jump\t// in\n    tag_145:\n        /* \"#utility.yul\":3035:3138   */\n    tag_144:\n        /* \"#utility.yul\":3165:3166   */\n      0x01\n        /* \"#utility.yul\":3158:3163   */\n      dup3\n        /* \"#utility.yul\":3154:3167   */\n      add\n        /* \"#utility.yul\":3147:3167   */\n      swap1\n      pop\n        /* \"#utility.yul\":2940:3173   */\n      swap2\n      swap1\n      pop\n      jump\t// out\n        /* \"#utility.yul\":3179:3297   */\n    tag_99:\n        /* \"#utility.yul\":3266:3290   */\n      tag_147\n        /* \"#utility.yul\":3284:3289   */\n      dup2\n        /* \"#utility.yul\":3266:3290   */\n      tag_93\n      jump\t// in\n    tag_147:\n        /* \"#utility.yul\":3261:3264   */\n      dup3\n        /* \"#utility.yul\":3254:3291   */\n      mstore\n        /* \"#utility.yul\":3179:3297   */\n      pop\n      pop\n      jump\t// out\n        /* \"#utility.yul\":3303:3635   */\n    tag_62:\n        /* \"#utility.yul\":3424:3428   */\n      0x00\n        /* \"#utility.yul\":3462:3464   */\n      0x40\n        /* \"#utility.yul\":3451:3460   */\n      dup3\n        /* \"#utility.yul\":3447:3465   */\n      add\n        /* \"#utility.yul\":3439:3465   */\n      swap1\n      pop\n        /* \"#utility.yul\":3475:3546   */\n      tag_149\n        /* \"#utility.yul\":3543:3544   */\n      0x00\n        /* \"#utility.yul\":3532:3541   */\n      dup4\n        /* \"#utility.yul\":3528:3545   */\n      add\n        /* \"#utility.yul\":3519:3525   */\n      dup6\n        /* \"#utility.yul\":3475:3546   */\n      tag_99\n      jump\t// in\n    tag_149:\n        /* \"#utility.yul\":3556:3628   */\n      tag_150\n        /* \"#utility.yul\":3624:3626   */\n      0x20\n        /* \"#utility.yul\":3613:3622   */\n      dup4\n        /* \"#utility.yul\":3609:3627   */\n      add\n        /* \"#utility.yul\":3600:3606   */\n      dup5\n        /* \"#utility.yul\":3556:3628   */\n      tag_88\n      jump\t// in\n    tag_150:\n        /* \"#utility.yul\":3303:3635   */\n      swap4\n      swap3\n      pop\n      pop\n      pop\n      jump\t// out\n        /* \"#utility.yul\":3641:3835   */\n    tag_73:\n        /* \"#utility.yul\":3681:3685   */\n      0x00\n        /* \"#utility.yul\":3701:3721   */\n      tag_152\n        /* \"#utility.yul\":3719:3720   */\n      dup3\n        /* \"#utility.yul\":3701:3721   */\n      tag_87\n      jump\t// in\n    tag_152:\n        /* \"#utility.yul\":3696:3721   */\n      swap2\n      pop\n        /* \"#utility.yul\":3735:3755   */\n      tag_153\n        /* \"#utility.yul\":3753:3754   */\n      dup4\n        /* \"#utility.yul\":3735:3755   */\n      tag_87\n      jump\t// in\n    tag_153:\n        /* \"#utility.yul\":3730:3755   */\n      swap3\n      pop\n        /* \"#utility.yul\":3779:3780   */\n      dup3\n        /* \"#utility.yul\":3776:3777   */\n      dup3\n        /* \"#utility.yul\":3772:3781   */\n      sub\n        /* \"#utility.yul\":3764:3781   */\n      swap1\n      pop\n        /* \"#utility.yul\":3803:3804   */\n      dup2\n        /* \"#utility.yul\":3797:3801   */\n      dup2\n        /* \"#utility.yul\":3794:3805   */\n      gt\n        /* \"#utility.yul\":3791:3828   */\n      iszero\n      tag_154\n      jumpi\n        /* \"#utility.yul\":3808:3826   */\n      tag_155\n      tag_98\n      jump\t// in\n    tag_155:\n        /* \"#utility.yul\":3791:3828   */\n    tag_154:\n        /* \"#utility.yul\":3641:3835   */\n      swap3\n      swap2\n      pop\n      pop\n      jump\t// out\n        /* \"#utility.yul\":3841:3988   */\n    tag_100:\n        /* \"#utility.yul\":3942:3953   */\n      0x00\n        /* \"#utility.yul\":3979:3982   */\n      dup2\n        /* \"#utility.yul\":3964:3982   */\n      swap1\n      pop\n        /* \"#utility.yul\":3841:3988   */\n      swap3\n      swap2\n      pop\n      pop\n      jump\t// out\n        /* \"#utility.yul\":3994:4108   */\n    tag_101:\n      pop\n      jump\t// out\n        /* \"#utility.yul\":4114:4512   */\n    tag_102:\n        /* \"#utility.yul\":4273:4276   */\n      0x00\n        /* \"#utility.yul\":4294:4377   */\n      tag_159\n        /* \"#utility.yul\":4375:4376   */\n      0x00\n        /* \"#utility.yul\":4370:4373   */\n      dup4\n        /* \"#utility.yul\":4294:4377   */\n      tag_100\n      jump\t// in\n    tag_159:\n        /* \"#utility.yul\":4287:4377   */\n      swap2\n      pop\n        /* \"#utility.yul\":4386:4479   */\n      tag_160\n        /* \"#utility.yul\":4475:4478   */\n      dup3\n        /* \"#utility.yul\":4386:4479   */\n      tag_101\n      jump\t// in\n    tag_160:\n        /* \"#utility.yul\":4504:4505   */\n      0x00\n        /* \"#utility.yul\":4499:4502   */\n      dup3\n        /* \"#utility.yul\":4495:4506   */\n      add\n        /* \"#utility.yul\":4488:4506   */\n      swap1\n      pop\n        /* \"#utility.yul\":4114:4512   */\n      swap2\n      swap1\n      pop\n      jump\t// out\n        /* \"#utility.yul\":4518:4897   */\n    tag_81:\n        /* \"#utility.yul\":4702:4705   */\n      0x00\n        /* \"#utility.yul\":4724:4871   */\n      tag_162\n        /* \"#utility.yul\":4867:4870   */\n      dup3\n        /* \"#utility.yul\":4724:4871   */\n      tag_102\n      jump\t// in\n    tag_162:\n        /* \"#utility.yul\":4717:4871   */\n      swap2\n      pop\n        /* \"#utility.yul\":4888:4891   */\n      dup2\n        /* \"#utility.yul\":4881:4891   */\n      swap1\n      pop\n        /* \"#utility.yul\":4518:4897   */\n      swap2\n      swap1\n      pop\n      jump\t// out\n\n    auxdata: 0xa264697066735822122072643ddf39b6e189881abff5d61fadf23a92eec023fdf8d9340ba9e5ee50089e64736f6c634300081e0033\n}\n",
				"bytecode": {
					"linkReferences": {},
					"object": "60c060405234801561000f575f5ffd5b50604051610b0e380380610b0e83398181016040528101906100319190610091565b8160a0818152505080608081815250505f60015f01819055505f600180018190555050506100cf565b5f5ffd5b5f819050919050565b6100708161005e565b811461007a575f5ffd5b50565b5f8151905061008b81610067565b92915050565b5f5f604083850312156100a7576100a661005a565b5b5f6100b48582860161007d565b92505060206100c58582860161007d565b9150509250929050565b60805160a051610a0261010c5f395f81816101dc0152818161028001526102b601525f81816101a10152818161054801526105710152610a025ff3fe608060405260043610610073575f3560e01c806346200daa1161004d57806346200daa146101065780637af327a01461014257806399f6383e1461014c578063bc896d53146101765761007a565b80632c8fce251461008757806333ecf422146100b15780633a97091a146100dc5761007a565b3661007a57005b348015610085575f5ffd5b005b348015610092575f5ffd5b5061009b61019e565b6040516100a8919061075d565b60405180910390f35b3480156100bc575f5ffd5b506100c56101c5565b6040516100d3929190610776565b60405180910390f35b3480156100e7575f5ffd5b506100f06101d9565b6040516100fd919061075d565b60405180910390f35b348015610111575f5ffd5b5061012c600480360381019061012791906107fb565b610200565b604051610139919061075d565b60405180910390f35b61014a610245565b005b348015610157575f5ffd5b506101606103d0565b60405161016d919061075d565b60405180910390f35b348015610181575f5ffd5b5061019c60048036038101906101979190610850565b6103d9565b005b5f7f0000000000000000000000000000000000000000000000000000000000000000905090565b5f5f60015f01546001800154915091509091565b5f7f0000000000000000000000000000000000000000000000000000000000000000905090565b5f5f5f8373ffffffffffffffffffffffffffffffffffffffff1673ffffffffffffffffffffffffffffffffffffffff1681526020019081526020015f20549050919050565b5f341161027e576040517f92749bd900000000000000000000000000000000000000000000000000000000815260040160405180910390fd5b7f0000000000000000000000000000000000000000000000000000000000000000600354346102ad91906108a8565b111561031257347f00000000000000000000000000000000000000000000000000000000000000006040517ff8953af0000000000000000000000000000000000000000000000000000000008152600401610309929190610776565b60405180910390fd5b345f5f3373ffffffffffffffffffffffffffffffffffffffff1673ffffffffffffffffffffffffffffffffffffffff1681526020019081526020015f205f82825461035d91906108a8565b925050819055503460035f82825461037591906108a8565b9250508190555060015f015f815480929190610390906108db565b91905055507f8e13c232b6ad491513c1540f8bc226e1c5072f2f8b9bcd13088a478c67fd5a4933346040516103c6929190610931565b60405180910390a1565b5f600354905090565b5f5f5f3373ffffffffffffffffffffffffffffffffffffffff1673ffffffffffffffffffffffffffffffffffffffff1681526020019081526020015f20540361044e576040517fed6800d900000000000000000000000000000000000000000000000000000000815260040160405180910390fd5b5f8111610487576040517f92749bd900000000000000000000000000000000000000000000000000000000815260040160405180910390fd5b5f5f3373ffffffffffffffffffffffffffffffffffffffff1673ffffffffffffffffffffffffffffffffffffffff1681526020019081526020015f2054811115610546575f5f3373ffffffffffffffffffffffffffffffffffffffff1673ffffffffffffffffffffffffffffffffffffffff1681526020019081526020015f2054816040517f9d8b89ca00000000000000000000000000000000000000000000000000000000815260040161053d929190610776565b60405180910390fd5b7f00000000000000000000000000000000000000000000000000000000000000008111156105cd57807f00000000000000000000000000000000000000000000000000000000000000006040517f8e6096bb0000000000000000000000000000000000000000000000000000000081526004016105c4929190610776565b60405180910390fd5b805f5f3373ffffffffffffffffffffffffffffffffffffffff1673ffffffffffffffffffffffffffffffffffffffff1681526020019081526020015f205f8282546106189190610958565b925050819055508060035f8282546106309190610958565b92505081905550600180015f81548092919061064b906108db565b919050555061065981610695565b7f6553d752fc46d96aab714525ba8f58c666892e2a31f2bf65d6d87db515bf81aa338260405161068a929190610931565b60405180910390a150565b5f3373ffffffffffffffffffffffffffffffffffffffff16826040516106ba906109b8565b5f6040518083038185875af1925050503d805f81146106f4576040519150601f19603f3d011682016040523d82523d5f602084013e6106f9565b606091505b50509050806107415733826040517fc66cee38000000000000000000000000000000000000000000000000000000008152600401610738929190610931565b60405180910390fd5b5050565b5f819050919050565b61075781610745565b82525050565b5f6020820190506107705f83018461074e565b92915050565b5f6040820190506107895f83018561074e565b610796602083018461074e565b9392505050565b5f5ffd5b5f73ffffffffffffffffffffffffffffffffffffffff82169050919050565b5f6107ca826107a1565b9050919050565b6107da816107c0565b81146107e4575f5ffd5b50565b5f813590506107f5816107d1565b92915050565b5f602082840312156108105761080f61079d565b5b5f61081d848285016107e7565b91505092915050565b61082f81610745565b8114610839575f5ffd5b50565b5f8135905061084a81610826565b92915050565b5f602082840312156108655761086461079d565b5b5f6108728482850161083c565b91505092915050565b7f4e487b71000000000000000000000000000000000000000000000000000000005f52601160045260245ffd5b5f6108b282610745565b91506108bd83610745565b92508282019050808211156108d5576108d461087b565b5b92915050565b5f6108e582610745565b91507fffffffffffffffffffffffffffffffffffffffffffffffffffffffffffffffff82036109175761091661087b565b5b600182019050919050565b61092b816107c0565b82525050565b5f6040820190506109445f830185610922565b610951602083018461074e565b9392505050565b5f61096282610745565b915061096d83610745565b92508282039050818111156109855761098461087b565b5b92915050565b5f81905092915050565b50565b5f6109a35f8361098b565b91506109ae82610995565b5f82019050919050565b5f6109c282610998565b915081905091905056fea264697066735822122072643ddf39b6e189881abff5d61fadf23a92eec023fdf8d9340ba9e5ee50089e64736f6c634300081e0033",
					"opcodes": "PUSH1 0xC0 PUSH1 0x40 MSTORE CALLVALUE DUP1 ISZERO PUSH2 0xF JUMPI PUSH0 PUSH0 REVERT JUMPDEST POP PUSH1 0x40 MLOAD PUSH2 0xB0E CODESIZE SUB DUP1 PUSH2 0xB0E DUP4 CODECOPY DUP2 DUP2 ADD PUSH1 0x40 MSTORE DUP2 ADD SWAP1 PUSH2 0x31 SWAP2 SWAP1 PUSH2 0x91 JUMP JUMPDEST DUP2 PUSH1 0xA0 DUP2 DUP2 MSTORE POP POP DUP1 PUSH1 0x80 DUP2 DUP2 MSTORE POP POP PUSH0 PUSH1 0x1 PUSH0 ADD DUP2 SWAP1 SSTORE POP PUSH0 PUSH1 0x1 DUP1 ADD DUP2 SWAP1 SSTORE POP POP POP PUSH2 0xCF JUMP JUMPDEST PUSH0 PUSH0 REVERT JUMPDEST PUSH0 DUP2 SWAP1 POP SWAP2 SWAP1 POP JUMP JUMPDEST PUSH2 0x70 DUP2 PUSH2 0x5E JUMP JUMPDEST DUP2 EQ PUSH2 0x7A JUMPI PUSH0 PUSH0 REVERT JUMPDEST POP JUMP JUMPDEST PUSH0 DUP2 MLOAD SWAP1 POP PUSH2 0x8B DUP2 PUSH2 0x67 JUMP JUMPDEST SWAP3 SWAP2 POP POP JUMP JUMPDEST PUSH0 PUSH0 PUSH1 0x40 DUP4 DUP6 SUB SLT ISZERO PUSH2 0xA7 JUMPI PUSH2 0xA6 PUSH2 0x5A JUMP JUMPDEST JUMPDEST PUSH0 PUSH2 0xB4 DUP6 DUP3 DUP7 ADD PUSH2 0x7D JUMP JUMPDEST SWAP3 POP POP PUSH1 0x20 PUSH2 0xC5 DUP6 DUP3 DUP7 ADD PUSH2 0x7D JUMP JUMPDEST SWAP2 POP POP SWAP3 POP SWAP3 SWAP1 POP JUMP JUMPDEST PUSH1 0x80 MLOAD PUSH1 0xA0 MLOAD PUSH2 0xA02 PUSH2 0x10C PUSH0 CODECOPY PUSH0 DUP2 DUP2 PUSH2 0x1DC ADD MSTORE DUP2 DUP2 PUSH2 0x280 ADD MSTORE PUSH2 0x2B6 ADD MSTORE PUSH0 DUP2 DUP2 PUSH2 0x1A1 ADD MSTORE DUP2 DUP2 PUSH2 0x548 ADD MSTORE PUSH2 0x571 ADD MSTORE PUSH2 0xA02 PUSH0 RETURN INVALID PUSH1 0x80 PUSH1 0x40 MSTORE PUSH1 0x4 CALLDATASIZE LT PUSH2 0x73 JUMPI PUSH0 CALLDATALOAD PUSH1 0xE0 SHR DUP1 PUSH4 0x46200DAA GT PUSH2 0x4D JUMPI DUP1 PUSH4 0x46200DAA EQ PUSH2 0x106 JUMPI DUP1 PUSH4 0x7AF327A0 EQ PUSH2 0x142 JUMPI DUP1 PUSH4 0x99F6383E EQ PUSH2 0x14C JUMPI DUP1 PUSH4 0xBC896D53 EQ PUSH2 0x176 JUMPI PUSH2 0x7A JUMP JUMPDEST DUP1 PUSH4 0x2C8FCE25 EQ PUSH2 0x87 JUMPI DUP1 PUSH4 0x33ECF422 EQ PUSH2 0xB1 JUMPI DUP1 PUSH4 0x3A97091A EQ PUSH2 0xDC JUMPI PUSH2 0x7A JUMP JUMPDEST CALLDATASIZE PUSH2 0x7A JUMPI STOP JUMPDEST CALLVALUE DUP1 ISZERO PUSH2 0x85 JUMPI PUSH0 PUSH0 REVERT JUMPDEST STOP JUMPDEST CALLVALUE DUP1 ISZERO PUSH2 0x92 JUMPI PUSH0 PUSH0 REVERT JUMPDEST POP PUSH2 0x9B PUSH2 0x19E JUMP JUMPDEST PUSH1 0x40 MLOAD PUSH2 0xA8 SWAP2 SWAP1 PUSH2 0x75D JUMP JUMPDEST PUSH1 0x40 MLOAD DUP1 SWAP2 SUB SWAP1 RETURN JUMPDEST CALLVALUE DUP1 ISZERO PUSH2 0xBC JUMPI PUSH0 PUSH0 REVERT JUMPDEST POP PUSH2 0xC5 PUSH2 0x1C5 JUMP JUMPDEST PUSH1 0x40 MLOAD PUSH2 0xD3 SWAP3 SWAP2 SWAP1 PUSH2 0x776 JUMP JUMPDEST PUSH1 0x40 MLOAD DUP1 SWAP2 SUB SWAP1 RETURN JUMPDEST CALLVALUE DUP1 ISZERO PUSH2 0xE7 JUMPI PUSH0 PUSH0 REVERT JUMPDEST POP PUSH2 0xF0 PUSH2 0x1D9 JUMP JUMPDEST PUSH1 0x40 MLOAD PUSH2 0xFD SWAP2 SWAP1 PUSH2 0x75D JUMP JUMPDEST PUSH1 0x40 MLOAD DUP1 SWAP2 SUB SWAP1 RETURN JUMPDEST CALLVALUE DUP1 ISZERO PUSH2 0x111 JUMPI PUSH0 PUSH0 REVERT JUMPDEST POP PUSH2 0x12C PUSH1 0x4 DUP1 CALLDATASIZE SUB DUP2 ADD SWAP1 PUSH2 0x127 SWAP2 SWAP1 PUSH2 0x7FB JUMP JUMPDEST PUSH2 0x200 JUMP JUMPDEST PUSH1 0x40 MLOAD PUSH2 0x139 SWAP2 SWAP1 PUSH2 0x75D JUMP JUMPDEST PUSH1 0x40 MLOAD DUP1 SWAP2 SUB SWAP1 RETURN JUMPDEST PUSH2 0x14A PUSH2 0x245 JUMP JUMPDEST STOP JUMPDEST CALLVALUE DUP1 ISZERO PUSH2 0x157 JUMPI PUSH0 PUSH0 REVERT JUMPDEST POP PUSH2 0x160 PUSH2 0x3D0 JUMP JUMPDEST PUSH1 0x40 MLOAD PUSH2 0x16D SWAP2 SWAP1 PUSH2 0x75D JUMP JUMPDEST PUSH1 0x40 MLOAD DUP1 SWAP2 SUB SWAP1 RETURN JUMPDEST CALLVALUE DUP1 ISZERO PUSH2 0x181 JUMPI PUSH0 PUSH0 REVERT JUMPDEST POP PUSH2 0x19C PUSH1 0x4 DUP1 CALLDATASIZE SUB DUP2 ADD SWAP1 PUSH2 0x197 SWAP2 SWAP1 PUSH2 0x850 JUMP JUMPDEST PUSH2 0x3D9 JUMP JUMPDEST STOP JUMPDEST PUSH0 PUSH32 0x0 SWAP1 POP SWAP1 JUMP JUMPDEST PUSH0 PUSH0 PUSH1 0x1 PUSH0 ADD SLOAD PUSH1 0x1 DUP1 ADD SLOAD SWAP2 POP SWAP2 POP SWAP1 SWAP2 JUMP JUMPDEST PUSH0 PUSH32 0x0 SWAP1 POP SWAP1 JUMP JUMPDEST PUSH0 PUSH0 PUSH0 DUP4 PUSH20 0xFFFFFFFFFFFFFFFFFFFFFFFFFFFFFFFFFFFFFFFF AND PUSH20 0xFFFFFFFFFFFFFFFFFFFFFFFFFFFFFFFFFFFFFFFF AND DUP2 MSTORE PUSH1 0x20 ADD SWAP1 DUP2 MSTORE PUSH1 0x20 ADD PUSH0 KECCAK256 SLOAD SWAP1 POP SWAP2 SWAP1 POP JUMP JUMPDEST PUSH0 CALLVALUE GT PUSH2 0x27E JUMPI PUSH1 0x40 MLOAD PUSH32 0x92749BD900000000000000000000000000000000000000000000000000000000 DUP2 MSTORE PUSH1 0x4 ADD PUSH1 0x40 MLOAD DUP1 SWAP2 SUB SWAP1 REVERT JUMPDEST PUSH32 0x0 PUSH1 0x3 SLOAD CALLVALUE PUSH2 0x2AD SWAP2 SWAP1 PUSH2 0x8A8 JUMP JUMPDEST GT ISZERO PUSH2 0x312 JUMPI CALLVALUE PUSH32 0x0 PUSH1 0x40 MLOAD PUSH32 0xF8953AF000000000000000000000000000000000000000000000000000000000 DUP2 MSTORE PUSH1 0x4 ADD PUSH2 0x309 SWAP3 SWAP2 SWAP1 PUSH2 0x776 JUMP JUMPDEST PUSH1 0x40 MLOAD DUP1 SWAP2 SUB SWAP1 REVERT JUMPDEST CALLVALUE PUSH0 PUSH0 CALLER PUSH20 0xFFFFFFFFFFFFFFFFFFFFFFFFFFFFFFFFFFFFFFFF AND PUSH20 0xFFFFFFFFFFFFFFFFFFFFFFFFFFFFFFFFFFFFFFFF AND DUP2 MSTORE PUSH1 0x20 ADD SWAP1 DUP2 MSTORE PUSH1 0x20 ADD PUSH0 KECCAK256 PUSH0 DUP3 DUP3 SLOAD PUSH2 0x35D SWAP2 SWAP1 PUSH2 0x8A8 JUMP JUMPDEST SWAP3 POP POP DUP2 SWAP1 SSTORE POP CALLVALUE PUSH1 0x3 PUSH0 DUP3 DUP3 SLOAD PUSH2 0x375 SWAP2 SWAP1 PUSH2 0x8A8 JUMP JUMPDEST SWAP3 POP POP DUP2 SWAP1 SSTORE POP PUSH1 0x1 PUSH0 ADD PUSH0 DUP2 SLOAD DUP1 SWAP3 SWAP2 SWAP1 PUSH2 0x390 SWAP1 PUSH2 0x8DB JUMP JUMPDEST SWAP2 SWAP1 POP SSTORE POP PUSH32 0x8E13C232B6AD491513C1540F8BC226E1C5072F2F8B9BCD13088A478C67FD5A49 CALLER CALLVALUE PUSH1 0x40 MLOAD PUSH2 0x3C6 SWAP3 SWAP2 SWAP1 PUSH2 0x931 JUMP JUMPDEST PUSH1 0x40 MLOAD DUP1 SWAP2 SUB SWAP1 LOG1 JUMP JUMPDEST PUSH0 PUSH1 0x3 SLOAD SWAP1 POP SWAP1 JUMP JUMPDEST PUSH0 PUSH0 PUSH0 CALLER PUSH20 0xFFFFFFFFFFFFFFFFFFFFFFFFFFFFFFFFFFFFFFFF AND PUSH20 0xFFFFFFFFFFFFFFFFFFFFFFFFFFFFFFFFFFFFFFFF AND DUP2 MSTORE PUSH1 0x20 ADD SWAP1 DUP2 MSTORE PUSH1 0x20 ADD PUSH0 KECCAK256 SLOAD SUB PUSH2 0x44E JUMPI PUSH1 0x40 MLOAD PUSH32 0xED6800D900000000000000000000000000000000000000000000000000000000 DUP2 MSTORE PUSH1 0x4 ADD PUSH1 0x40 MLOAD DUP1 SWAP2 SUB SWAP1 REVERT JUMPDEST PUSH0 DUP2 GT PUSH2 0x487 JUMPI PUSH1 0x40 MLOAD PUSH32 0x92749BD900000000000000000000000000000000000000000000000000000000 DUP2 MSTORE PUSH1 0x4 ADD PUSH1 0x40 MLOAD DUP1 SWAP2 SUB SWAP1 REVERT JUMPDEST PUSH0 PUSH0 CALLER PUSH20 0xFFFFFFFFFFFFFFFFFFFFFFFFFFFFFFFFFFFFFFFF AND PUSH20 0xFFFFFFFFFFFFFFFFFFFFFFFFFFFFFFFFFFFFFFFF AND DUP2 MSTORE PUSH1 0x20 ADD SWAP1 DUP2 MSTORE PUSH1 0x20 ADD PUSH0 KECCAK256 SLOAD DUP2 GT ISZERO PUSH2 0x546 JUMPI PUSH0 PUSH0 CALLER PUSH20 0xFFFFFFFFFFFFFFFFFFFFFFFFFFFFFFFFFFFFFFFF AND PUSH20 0xFFFFFFFFFFFFFFFFFFFFFFFFFFFFFFFFFFFFFFFF AND DUP2 MSTORE PUSH1 0x20 ADD SWAP1 DUP2 MSTORE PUSH1 0x20 ADD PUSH0 KECCAK256 SLOAD DUP2 PUSH1 0x40 MLOAD PUSH32 0x9D8B89CA00000000000000000000000000000000000000000000000000000000 DUP2 MSTORE PUSH1 0x4 ADD PUSH2 0x53D SWAP3 SWAP2 SWAP1 PUSH2 0x776 JUMP JUMPDEST PUSH1 0x40 MLOAD DUP1 SWAP2 SUB SWAP1 REVERT JUMPDEST PUSH32 0x0 DUP2 GT ISZERO PUSH2 0x5CD JUMPI DUP1 PUSH32 0x0 PUSH1 0x40 MLOAD PUSH32 0x8E6096BB00000000000000000000000000000000000000000000000000000000 DUP2 MSTORE PUSH1 0x4 ADD PUSH2 0x5C4 SWAP3 SWAP2 SWAP1 PUSH2 0x776 JUMP JUMPDEST PUSH1 0x40 MLOAD DUP1 SWAP2 SUB SWAP1 REVERT JUMPDEST DUP1 PUSH0 PUSH0 CALLER PUSH20 0xFFFFFFFFFFFFFFFFFFFFFFFFFFFFFFFFFFFFFFFF AND PUSH20 0xFFFFFFFFFFFFFFFFFFFFFFFFFFFFFFFFFFFFFFFF AND DUP2 MSTORE PUSH1 0x20 ADD SWAP1 DUP2 MSTORE PUSH1 0x20 ADD PUSH0 KECCAK256 PUSH0 DUP3 DUP3 SLOAD PUSH2 0x618 SWAP2 SWAP1 PUSH2 0x958 JUMP JUMPDEST SWAP3 POP POP DUP2 SWAP1 SSTORE POP DUP1 PUSH1 0x3 PUSH0 DUP3 DUP3 SLOAD PUSH2 0x630 SWAP2 SWAP1 PUSH2 0x958 JUMP JUMPDEST SWAP3 POP POP DUP2 SWAP1 SSTORE POP PUSH1 0x1 DUP1 ADD PUSH0 DUP2 SLOAD DUP1 SWAP3 SWAP2 SWAP1 PUSH2 0x64B SWAP1 PUSH2 0x8DB JUMP JUMPDEST SWAP2 SWAP1 POP SSTORE POP PUSH2 0x659 DUP2 PUSH2 0x695 JUMP JUMPDEST PUSH32 0x6553D752FC46D96AAB714525BA8F58C666892E2A31F2BF65D6D87DB515BF81AA CALLER DUP3 PUSH1 0x40 MLOAD PUSH2 0x68A SWAP3 SWAP2 SWAP1 PUSH2 0x931 JUMP JUMPDEST PUSH1 0x40 MLOAD DUP1 SWAP2 SUB SWAP1 LOG1 POP JUMP JUMPDEST PUSH0 CALLER PUSH20 0xFFFFFFFFFFFFFFFFFFFFFFFFFFFFFFFFFFFFFFFF AND DUP3 PUSH1 0x40 MLOAD PUSH2 0x6BA SWAP1 PUSH2 0x9B8 JUMP JUMPDEST PUSH0 PUSH1 0x40 MLOAD DUP1 DUP4 SUB DUP2 DUP6 DUP8 GAS CALL SWAP3 POP POP POP RETURNDATASIZE DUP1 PUSH0 DUP2 EQ PUSH2 0x6F4 JUMPI PUSH1 0x40 MLOAD SWAP2 POP PUSH1 0x1F NOT PUSH1 0x3F RETURNDATASIZE ADD AND DUP3 ADD PUSH1 0x40 MSTORE RETURNDATASIZE DUP3 MSTORE RETURNDATASIZE PUSH0 PUSH1 0x20 DUP5 ADD RETURNDATACOPY PUSH2 0x6F9 JUMP JUMPDEST PUSH1 0x60 SWAP2 POP JUMPDEST POP POP SWAP1 POP DUP1 PUSH2 0x741 JUMPI CALLER DUP3 PUSH1 0x40 MLOAD PUSH32 0xC66CEE3800000000000000000000000000000000000000000000000000000000 DUP2 MSTORE PUSH1 0x4 ADD PUSH2 0x738 SWAP3 SWAP2 SWAP1 PUSH2 0x931 JUMP JUMPDEST PUSH1 0x40 MLOAD DUP1 SWAP2 SUB SWAP1 REVERT JUMPDEST POP POP JUMP JUMPDEST PUSH0 DUP2 SWAP1 POP SWAP2 SWAP1 POP JUMP JUMPDEST PUSH2 0x757 DUP2 PUSH2 0x745 JUMP JUMPDEST DUP3 MSTORE POP POP JUMP JUMPDEST PUSH0 PUSH1 0x20 DUP3 ADD SWAP1 POP PUSH2 0x770 PUSH0 DUP4 ADD DUP5 PUSH2 0x74E JUMP JUMPDEST SWAP3 SWAP2 POP POP JUMP JUMPDEST PUSH0 PUSH1 0x40 DUP3 ADD SWAP1 POP PUSH2 0x789 PUSH0 DUP4 ADD DUP6 PUSH2 0x74E JUMP JUMPDEST PUSH2 0x796 PUSH1 0x20 DUP4 ADD DUP5 PUSH2 0x74E JUMP JUMPDEST SWAP4 SWAP3 POP POP POP JUMP JUMPDEST PUSH0 PUSH0 REVERT JUMPDEST PUSH0 PUSH20 0xFFFFFFFFFFFFFFFFFFFFFFFFFFFFFFFFFFFFFFFF DUP3 AND SWAP1 POP SWAP2 SWAP1 POP JUMP JUMPDEST PUSH0 PUSH2 0x7CA DUP3 PUSH2 0x7A1 JUMP JUMPDEST SWAP1 POP SWAP2 SWAP1 POP JUMP JUMPDEST PUSH2 0x7DA DUP2 PUSH2 0x7C0 JUMP JUMPDEST DUP2 EQ PUSH2 0x7E4 JUMPI PUSH0 PUSH0 REVERT JUMPDEST POP JUMP JUMPDEST PUSH0 DUP2 CALLDATALOAD SWAP1 POP PUSH2 0x7F5 DUP2 PUSH2 0x7D1 JUMP JUMPDEST SWAP3 SWAP2 POP POP JUMP JUMPDEST PUSH0 PUSH1 0x20 DUP3 DUP5 SUB SLT ISZERO PUSH2 0x810 JUMPI PUSH2 0x80F PUSH2 0x79D JUMP JUMPDEST JUMPDEST PUSH0 PUSH2 0x81D DUP5 DUP3 DUP6 ADD PUSH2 0x7E7 JUMP JUMPDEST SWAP2 POP POP SWAP3 SWAP2 POP POP JUMP JUMPDEST PUSH2 0x82F DUP2 PUSH2 0x745 JUMP JUMPDEST DUP2 EQ PUSH2 0x839 JUMPI PUSH0 PUSH0 REVERT JUMPDEST POP JUMP JUMPDEST PUSH0 DUP2 CALLDATALOAD SWAP1 POP PUSH2 0x84A DUP2 PUSH2 0x826 JUMP JUMPDEST SWAP3 SWAP2 POP POP JUMP JUMPDEST PUSH0 PUSH1 0x20 DUP3 DUP5 SUB SLT ISZERO PUSH2 0x865 JUMPI PUSH2 0x864 PUSH2 0x79D JUMP JUMPDEST JUMPDEST PUSH0 PUSH2 0x872 DUP5 DUP3 DUP6 ADD PUSH2 0x83C JUMP JUMPDEST SWAP2 POP POP SWAP3 SWAP2 POP POP JUMP JUMPDEST PUSH32 0x4E487B7100000000000000000000000000000000000000000000000000000000 PUSH0 MSTORE PUSH1 0x11 PUSH1 0x4 MSTORE PUSH1 0x24 PUSH0 REVERT JUMPDEST PUSH0 PUSH2 0x8B2 DUP3 PUSH2 0x745 JUMP JUMPDEST SWAP2 POP PUSH2 0x8BD DUP4 PUSH2 0x745 JUMP JUMPDEST SWAP3 POP DUP3 DUP3 ADD SWAP1 POP DUP1 DUP3 GT ISZERO PUSH2 0x8D5 JUMPI PUSH2 0x8D4 PUSH2 0x87B JUMP JUMPDEST JUMPDEST SWAP3 SWAP2 POP POP JUMP JUMPDEST PUSH0 PUSH2 0x8E5 DUP3 PUSH2 0x745 JUMP JUMPDEST SWAP2 POP PUSH32 0xFFFFFFFFFFFFFFFFFFFFFFFFFFFFFFFFFFFFFFFFFFFFFFFFFFFFFFFFFFFFFFFF DUP3 SUB PUSH2 0x917 JUMPI PUSH2 0x916 PUSH2 0x87B JUMP JUMPDEST JUMPDEST PUSH1 0x1 DUP3 ADD SWAP1 POP SWAP2 SWAP1 POP JUMP JUMPDEST PUSH2 0x92B DUP2 PUSH2 0x7C0 JUMP JUMPDEST DUP3 MSTORE POP POP JUMP JUMPDEST PUSH0 PUSH1 0x40 DUP3 ADD SWAP1 POP PUSH2 0x944 PUSH0 DUP4 ADD DUP6 PUSH2 0x922 JUMP JUMPDEST PUSH2 0x951 PUSH1 0x20 DUP4 ADD DUP5 PUSH2 0x74E JUMP JUMPDEST SWAP4 SWAP3 POP POP POP JUMP JUMPDEST PUSH0 PUSH2 0x962 DUP3 PUSH2 0x745 JUMP JUMPDEST SWAP2 POP PUSH2 0x96D DUP4 PUSH2 0x745 JUMP JUMPDEST SWAP3 POP DUP3 DUP3 SUB SWAP1 POP DUP2 DUP2 GT ISZERO PUSH2 0x985 JUMPI PUSH2 0x984 PUSH2 0x87B JUMP JUMPDEST JUMPDEST SWAP3 SWAP2 POP POP JUMP JUMPDEST PUSH0 DUP2 SWAP1 POP SWAP3 SWAP2 POP POP JUMP JUMPDEST POP JUMP JUMPDEST PUSH0 PUSH2 0x9A3 PUSH0 DUP4 PUSH2 0x98B JUMP JUMPDEST SWAP2 POP PUSH2 0x9AE DUP3 PUSH2 0x995 JUMP JUMPDEST PUSH0 DUP3 ADD SWAP1 POP SWAP2 SWAP1 POP JUMP JUMPDEST PUSH0 PUSH2 0x9C2 DUP3 PUSH2 0x998 JUMP JUMPDEST SWAP2 POP DUP2 SWAP1 POP SWAP2 SWAP1 POP JUMP INVALID LOG2 PUSH5 0x6970667358 0x22 SLT KECCAK256 PUSH19 0x643DDF39B6E189881ABFF5D61FADF23A92EEC0 0x23 REVERT EXTCALL 0xD9 CALLVALUE SIGNEXTEND 0xA9 JUMPF 0xEE50 ADDMOD SWAP15 PUSH5 0x736F6C6343 STOP ADDMOD 0x1E STOP CALLER "
				},
				"gasEstimates": {
					"creation": {
						"codeDepositCost": "512400",
						"executionCost": "infinite",
						"totalCost": "infinite"
					},
					"external": {
						"": "176",
						"balanceUsuario(address)": "2828",
						"deposito()": "infinite",
						"retiro(uint256)": "infinite",
						"verBankCap()": "infinite",
						"verDepositosTotales()": "2476",
						"verRegistros()": "infinite",
						"verUmbralDeRetiro()": "infinite"
					},
					"internal": {
						"_transferirETH(uint256)": "infinite"
					}
				},
				"methodIdentifiers": {
					"balanceUsuario(address)": "46200daa",
					"deposito()": "7af327a0",
					"retiro(uint256)": "bc896d53",
					"verBankCap()": "3a97091a",
					"verDepositosTotales()": "99f6383e",
					"verRegistros()": "33ecf422",
					"verUmbralDeRetiro()": "2c8fce25"
				}
			},
			"storageLayout": {
				"storage": [
					{
						"astId": 7,
						"contract": "contracts/kipu.sol:KipuBank",
						"label": "bovedas",
						"offset": 0,
						"slot": "0",
						"type": "t_mapping(t_address,t_uint256)"
					},
					{
						"astId": 17,
						"contract": "contracts/kipu.sol:KipuBank",
						"label": "registro",
						"offset": 0,
						"slot": "1",
						"type": "t_struct(Registro)13_storage"
					},
					{
						"astId": 26,
						"contract": "contracts/kipu.sol:KipuBank",
						"label": "depositosTotales",
						"offset": 0,
						"slot": "3",
						"type": "t_uint256"
					}
				],
				"types": {
					"t_address": {
						"encoding": "inplace",
						"label": "address",
						"numberOfBytes": "20"
					},
					"t_mapping(t_address,t_uint256)": {
						"encoding": "mapping",
						"key": "t_address",
						"label": "mapping(address => uint256)",
						"numberOfBytes": "32",
						"value": "t_uint256"
					},
					"t_struct(Registro)13_storage": {
						"encoding": "inplace",
						"label": "struct KipuBank.Registro",
						"members": [
							{
								"astId": 10,
								"contract": "contracts/kipu.sol:KipuBank",
								"label": "numerosDeDepositos",
								"offset": 0,
								"slot": "0",
								"type": "t_uint256"
							},
							{
								"astId": 12,
								"contract": "contracts/kipu.sol:KipuBank",
								"label": "numerosDeRetiros",
								"offset": 0,
								"slot": "1",
								"type": "t_uint256"
							}
						],
						"numberOfBytes": "64"
					},
					"t_uint256": {
						"encoding": "inplace",
						"label": "uint256",
						"numberOfBytes": "32"
					}
				}
			},
			"userdoc": {
				"errors": {
					"BankCapExcedido(uint256,uint256)": [
						{
							"notice": "Error si el depósito supera el límite global del banco"
						}
					],
					"NoEsOwnerBoveda()": [
						{
							"notice": "error cuando el que quiere depositar o retirar no es el dueño de la bóveda"
						}
					],
					"RetiroNoValido(uint256,uint256)": [
						{
							"notice": "error al intentar retirar más del límite permitido"
						}
					],
					"SaldoInsuficiente(uint256,uint256)": [
						{
							"notice": "error al intentar retirar más de lo que tiene el usuario"
						}
					],
					"TransferenciaFallida(address,uint256)": [
						{
							"notice": "error si falla la transferencia de ETH"
						}
					],
					"ValorNoPuedeSerCeroONegativo()": [
						{
							"notice": "error cuando un valor no puede ser cero ni negativo"
						}
					]
				},
				"events": {
					"DepositoExitoso(address,uint256)": {
						"notice": "evento emitido al realizar exitosamente un depósito"
					},
					"RetiroExitoso(address,uint256)": {
						"notice": "evento emitido al realizar exitosamente un retiro"
					}
				},
				"kind": "user",
				"methods": {},
				"notice": "Este contrato es parte del curso ETH KIPU || Módulo 2 - Fundamentos de Solidity",
				"version": 1
			}
		}
	}
}